{
  "contractName": "aiverseNFT",
  "abi": [
    {
      "inputs": [],
      "stateMutability": "nonpayable",
      "type": "constructor"
    },
    {
      "anonymous": false,
      "inputs": [
        {
          "indexed": true,
          "internalType": "address",
          "name": "owner",
          "type": "address"
        },
        {
          "indexed": true,
          "internalType": "address",
          "name": "approved",
          "type": "address"
        },
        {
          "indexed": true,
          "internalType": "uint256",
          "name": "tokenId",
          "type": "uint256"
        }
      ],
      "name": "Approval",
      "type": "event"
    },
    {
      "anonymous": false,
      "inputs": [
        {
          "indexed": true,
          "internalType": "address",
          "name": "owner",
          "type": "address"
        },
        {
          "indexed": true,
          "internalType": "address",
          "name": "operator",
          "type": "address"
        },
        {
          "indexed": false,
          "internalType": "bool",
          "name": "approved",
          "type": "bool"
        }
      ],
      "name": "ApprovalForAll",
      "type": "event"
    },
    {
      "anonymous": false,
      "inputs": [
        {
          "indexed": false,
          "internalType": "uint256",
          "name": "_fromTokenId",
          "type": "uint256"
        },
        {
          "indexed": false,
          "internalType": "uint256",
          "name": "_toTokenId",
          "type": "uint256"
        }
      ],
      "name": "BatchMetadataUpdate",
      "type": "event"
    },
    {
      "anonymous": false,
      "inputs": [
        {
          "indexed": false,
          "internalType": "uint256",
          "name": "_tokenId",
          "type": "uint256"
        }
      ],
      "name": "MetadataUpdate",
      "type": "event"
    },
    {
      "anonymous": false,
      "inputs": [
        {
          "indexed": true,
          "internalType": "address",
          "name": "from",
          "type": "address"
        },
        {
          "indexed": true,
          "internalType": "address",
          "name": "to",
          "type": "address"
        },
        {
          "indexed": true,
          "internalType": "uint256",
          "name": "tokenId",
          "type": "uint256"
        }
      ],
      "name": "Transfer",
      "type": "event"
    },
    {
      "inputs": [
        {
          "internalType": "address",
          "name": "to",
          "type": "address"
        },
        {
          "internalType": "uint256",
          "name": "tokenId",
          "type": "uint256"
        }
      ],
      "name": "approve",
      "outputs": [],
      "stateMutability": "nonpayable",
      "type": "function"
    },
    {
      "inputs": [
        {
          "internalType": "address",
          "name": "owner",
          "type": "address"
        }
      ],
      "name": "balanceOf",
      "outputs": [
        {
          "internalType": "uint256",
          "name": "",
          "type": "uint256"
        }
      ],
      "stateMutability": "view",
      "type": "function",
      "constant": true
    },
    {
      "inputs": [
        {
          "internalType": "uint256",
          "name": "tokenId",
          "type": "uint256"
        }
      ],
      "name": "getApproved",
      "outputs": [
        {
          "internalType": "address",
          "name": "",
          "type": "address"
        }
      ],
      "stateMutability": "view",
      "type": "function",
      "constant": true
    },
    {
      "inputs": [
        {
          "internalType": "address",
          "name": "owner",
          "type": "address"
        },
        {
          "internalType": "address",
          "name": "operator",
          "type": "address"
        }
      ],
      "name": "isApprovedForAll",
      "outputs": [
        {
          "internalType": "bool",
          "name": "",
          "type": "bool"
        }
      ],
      "stateMutability": "view",
      "type": "function",
      "constant": true
    },
    {
      "inputs": [],
      "name": "name",
      "outputs": [
        {
          "internalType": "string",
          "name": "",
          "type": "string"
        }
      ],
      "stateMutability": "view",
      "type": "function",
      "constant": true
    },
    {
      "inputs": [
        {
          "internalType": "uint256",
          "name": "tokenId",
          "type": "uint256"
        }
      ],
      "name": "ownerOf",
      "outputs": [
        {
          "internalType": "address",
          "name": "",
          "type": "address"
        }
      ],
      "stateMutability": "view",
      "type": "function",
      "constant": true
    },
    {
      "inputs": [
        {
          "internalType": "address",
          "name": "from",
          "type": "address"
        },
        {
          "internalType": "address",
          "name": "to",
          "type": "address"
        },
        {
          "internalType": "uint256",
          "name": "tokenId",
          "type": "uint256"
        }
      ],
      "name": "safeTransferFrom",
      "outputs": [],
      "stateMutability": "nonpayable",
      "type": "function"
    },
    {
      "inputs": [
        {
          "internalType": "address",
          "name": "from",
          "type": "address"
        },
        {
          "internalType": "address",
          "name": "to",
          "type": "address"
        },
        {
          "internalType": "uint256",
          "name": "tokenId",
          "type": "uint256"
        },
        {
          "internalType": "bytes",
          "name": "data",
          "type": "bytes"
        }
      ],
      "name": "safeTransferFrom",
      "outputs": [],
      "stateMutability": "nonpayable",
      "type": "function"
    },
    {
      "inputs": [
        {
          "internalType": "address",
          "name": "operator",
          "type": "address"
        },
        {
          "internalType": "bool",
          "name": "approved",
          "type": "bool"
        }
      ],
      "name": "setApprovalForAll",
      "outputs": [],
      "stateMutability": "nonpayable",
      "type": "function"
    },
    {
      "inputs": [],
      "name": "symbol",
      "outputs": [
        {
          "internalType": "string",
          "name": "",
          "type": "string"
        }
      ],
      "stateMutability": "view",
      "type": "function",
      "constant": true
    },
    {
      "inputs": [
        {
          "internalType": "uint256",
          "name": "index",
          "type": "uint256"
        }
      ],
      "name": "tokenByIndex",
      "outputs": [
        {
          "internalType": "uint256",
          "name": "",
          "type": "uint256"
        }
      ],
      "stateMutability": "view",
      "type": "function",
      "constant": true
    },
    {
      "inputs": [
        {
          "internalType": "address",
          "name": "owner",
          "type": "address"
        },
        {
          "internalType": "uint256",
          "name": "index",
          "type": "uint256"
        }
      ],
      "name": "tokenOfOwnerByIndex",
      "outputs": [
        {
          "internalType": "uint256",
          "name": "",
          "type": "uint256"
        }
      ],
      "stateMutability": "view",
      "type": "function",
      "constant": true
    },
    {
      "inputs": [],
      "name": "totalSupply",
      "outputs": [
        {
          "internalType": "uint256",
          "name": "",
          "type": "uint256"
        }
      ],
      "stateMutability": "view",
      "type": "function",
      "constant": true
    },
    {
      "inputs": [
        {
          "internalType": "address",
          "name": "from",
          "type": "address"
        },
        {
          "internalType": "address",
          "name": "to",
          "type": "address"
        },
        {
          "internalType": "uint256",
          "name": "tokenId",
          "type": "uint256"
        }
      ],
      "name": "transferFrom",
      "outputs": [],
      "stateMutability": "nonpayable",
      "type": "function"
    },
    {
      "inputs": [
        {
          "internalType": "address",
          "name": "recipient",
          "type": "address"
        },
        {
          "internalType": "string",
          "name": "_tokenURI",
          "type": "string"
        }
      ],
      "name": "safeMint",
      "outputs": [
        {
          "internalType": "uint256",
          "name": "",
          "type": "uint256"
        }
      ],
      "stateMutability": "nonpayable",
      "type": "function"
    },
    {
      "inputs": [
        {
          "internalType": "uint256",
          "name": "tokenId",
          "type": "uint256"
        }
      ],
      "name": "tokenURI",
      "outputs": [
        {
          "internalType": "string",
          "name": "",
          "type": "string"
        }
      ],
      "stateMutability": "view",
      "type": "function",
      "constant": true
    },
    {
      "inputs": [
        {
          "internalType": "bytes4",
          "name": "interfaceId",
          "type": "bytes4"
        }
      ],
      "name": "supportsInterface",
      "outputs": [
        {
          "internalType": "bool",
          "name": "",
          "type": "bool"
        }
      ],
      "stateMutability": "view",
      "type": "function",
      "constant": true
    },
    {
      "inputs": [
        {
          "internalType": "address",
          "name": "owner",
          "type": "address"
        }
      ],
      "name": "getTokensByOwner",
      "outputs": [
        {
          "components": [
            {
              "internalType": "uint256",
              "name": "tokenId",
              "type": "uint256"
            },
            {
              "internalType": "string",
              "name": "tokenURI",
              "type": "string"
            },
            {
              "internalType": "address",
              "name": "owner",
              "type": "address"
            }
          ],
          "internalType": "struct aiverseNFT.Token[]",
          "name": "",
          "type": "tuple[]"
        }
      ],
      "stateMutability": "view",
      "type": "function",
      "constant": true
    },
    {
      "inputs": [
        {
          "internalType": "uint256",
          "name": "tokenId",
          "type": "uint256"
        }
      ],
      "name": "getTokenById",
      "outputs": [
        {
          "components": [
            {
              "internalType": "uint256",
              "name": "tokenId",
              "type": "uint256"
            },
            {
              "internalType": "string",
              "name": "tokenURI",
              "type": "string"
            },
            {
              "internalType": "address",
              "name": "owner",
              "type": "address"
            }
          ],
          "internalType": "struct aiverseNFT.Token",
          "name": "",
          "type": "tuple"
        }
      ],
      "stateMutability": "view",
      "type": "function",
      "constant": true
    }
  ],
  "bytecode": "0x608060405234801562000010575f80fd5b506040518060400160405280600b81526020017f41697665727365204e46540000000000000000000000000000000000000000008152506040518060400160405280600381526020017f4e46540000000000000000000000000000000000000000000000000000000000815250815f90816200008d91906200030c565b5080600190816200009f91906200030c565b505050620003f0565b5f81519050919050565b7f4e487b71000000000000000000000000000000000000000000000000000000005f52604160045260245ffd5b7f4e487b71000000000000000000000000000000000000000000000000000000005f52602260045260245ffd5b5f60028204905060018216806200012457607f821691505b6020821081036200013a5762000139620000df565b5b50919050565b5f819050815f5260205f209050919050565b5f6020601f8301049050919050565b5f82821b905092915050565b5f600883026200019e7fffffffffffffffffffffffffffffffffffffffffffffffffffffffffffffffff8262000161565b620001aa868362000161565b95508019841693508086168417925050509392505050565b5f819050919050565b5f819050919050565b5f620001f4620001ee620001e884620001c2565b620001cb565b620001c2565b9050919050565b5f819050919050565b6200020f83620001d4565b620002276200021e82620001fb565b8484546200016d565b825550505050565b5f90565b6200023d6200022f565b6200024a81848462000204565b505050565b5b818110156200027157620002655f8262000233565b60018101905062000250565b5050565b601f821115620002c0576200028a8162000140565b620002958462000152565b81016020851015620002a5578190505b620002bd620002b48562000152565b8301826200024f565b50505b505050565b5f82821c905092915050565b5f620002e25f1984600802620002c5565b1980831691505092915050565b5f620002fc8383620002d1565b9150826002028217905092915050565b6200031782620000a8565b67ffffffffffffffff811115620003335762000332620000b2565b5b6200033f82546200010c565b6200034c82828562000275565b5f60209050601f83116001811462000382575f84156200036d578287015190505b620003798582620002ef565b865550620003e8565b601f198416620003928662000140565b5f5b82811015620003bb5784890151825560018201915060208501945060208101905062000394565b86831015620003db5784890151620003d7601f891682620002d1565b8355505b6001600288020188555050505b505050505050565b61379b80620003fe5f395ff3fe608060405234801561000f575f80fd5b506004361061011f575f3560e01c80634f6ccce7116100ab578063a22cb4651161006f578063a22cb46514610351578063b88d4fde1461036d578063c87b56dd14610389578063d204c45e146103b9578063e985e9c5146103e95761011f565b80634f6ccce7146102735780636352211e146102a357806370a08231146102d35780637bdc60d91461030357806395d89b41146103335761011f565b806318160ddd116100f257806318160ddd146101bd57806323b872dd146101db5780632f745c59146101f757806340398d671461022757806342842e0e146102575761011f565b806301ffc9a71461012357806306fdde0314610153578063081812fc14610171578063095ea7b3146101a1575b5f80fd5b61013d6004803603810190610138919061226e565b610419565b60405161014a91906122b3565b60405180910390f35b61015b61042a565b6040516101689190612356565b60405180910390f35b61018b600480360381019061018691906123a9565b6104b9565b6040516101989190612413565b60405180910390f35b6101bb60048036038101906101b69190612456565b6104fb565b005b6101c5610611565b6040516101d291906124a3565b60405180910390f35b6101f560048036038101906101f091906124bc565b61061d565b005b610211600480360381019061020c9190612456565b61067d565b60405161021e91906124a3565b60405180910390f35b610241600480360381019061023c919061250c565b61071d565b60405161024e91906126a5565b60405180910390f35b610271600480360381019061026c91906124bc565b610814565b005b61028d600480360381019061028891906123a9565b610833565b60405161029a91906124a3565b60405180910390f35b6102bd60048036038101906102b891906123a9565b6108a1565b6040516102ca9190612413565b60405180910390f35b6102ed60048036038101906102e8919061250c565b610925565b6040516102fa91906124a3565b60405180910390f35b61031d600480360381019061031891906123a9565b6109d9565b60405161032a9190612712565b60405180910390f35b61033b610a33565b6040516103489190612356565b60405180910390f35b61036b6004803603810190610366919061275c565b610ac3565b005b610387600480360381019061038291906128c6565b610ad9565b005b6103a3600480360381019061039e91906123a9565b610b3b565b6040516103b09190612356565b60405180910390f35b6103d360048036038101906103ce91906129e4565b610b4d565b6040516103e091906124a3565b60405180910390f35b61040360048036038101906103fe9190612a3e565b610b83565b60405161041091906122b3565b60405180910390f35b5f61042382610c11565b9050919050565b60605f805461043890612aa9565b80601f016020809104026020016040519081016040528092919081815260200182805461046490612aa9565b80156104af5780601f10610486576101008083540402835291602001916104af565b820191905f5260205f20905b81548152906001019060200180831161049257829003601f168201915b5050505050905090565b5f6104c382610c71565b60045f8381526020019081526020015f205f9054906101000a900473ffffffffffffffffffffffffffffffffffffffff169050919050565b5f610505826108a1565b90508073ffffffffffffffffffffffffffffffffffffffff168373ffffffffffffffffffffffffffffffffffffffff1603610575576040517f08c379a000000000000000000000000000000000000000000000000000000000815260040161056c90612b49565b60405180910390fd5b8073ffffffffffffffffffffffffffffffffffffffff16610594610cbc565b73ffffffffffffffffffffffffffffffffffffffff1614806105c357506105c2816105bd610cbc565b610b83565b5b610602576040517f08c379a00000000000000000000000000000000000000000000000000000000081526004016105f990612bd7565b60405180910390fd5b61060c8383610cc3565b505050565b5f600880549050905090565b61062e610628610cbc565b82610d79565b61066d576040517f08c379a000000000000000000000000000000000000000000000000000000000815260040161066490612c65565b60405180910390fd5b610678838383610e0d565b505050565b5f61068783610925565b82106106c8576040517f08c379a00000000000000000000000000000000000000000000000000000000081526004016106bf90612cf3565b60405180910390fd5b60065f8473ffffffffffffffffffffffffffffffffffffffff1673ffffffffffffffffffffffffffffffffffffffff1681526020019081526020015f205f8381526020019081526020015f2054905092915050565b60605f61072983610925565b90505f8167ffffffffffffffff811115610746576107456127a2565b5b60405190808252806020026020018201604052801561077f57816020015b61076c6121d3565b8152602001906001900390816107645790505b5090505f5b82811015610809575f610797868361067d565b90505f6107a382610b3b565b905060405180606001604052808381526020018281526020018873ffffffffffffffffffffffffffffffffffffffff168152508484815181106107e9576107e8612d11565b5b60200260200101819052505050808061080190612d6b565b915050610784565b508092505050919050565b61082e83838360405180602001604052805f815250610ad9565b505050565b5f61083c610611565b821061087d576040517f08c379a000000000000000000000000000000000000000000000000000000000815260040161087490612e22565b60405180910390fd5b6008828154811061089157610890612d11565b5b905f5260205f2001549050919050565b5f806108ac836110f9565b90505f73ffffffffffffffffffffffffffffffffffffffff168173ffffffffffffffffffffffffffffffffffffffff160361091c576040517f08c379a000000000000000000000000000000000000000000000000000000000815260040161091390612e8a565b60405180910390fd5b80915050919050565b5f8073ffffffffffffffffffffffffffffffffffffffff168273ffffffffffffffffffffffffffffffffffffffff1603610994576040517f08c379a000000000000000000000000000000000000000000000000000000000815260040161098b90612f18565b60405180910390fd5b60035f8373ffffffffffffffffffffffffffffffffffffffff1673ffffffffffffffffffffffffffffffffffffffff1681526020019081526020015f20549050919050565b6109e16121d3565b5f6109eb836108a1565b90505f6109f784610b3b565b905060405180606001604052808581526020018281526020018373ffffffffffffffffffffffffffffffffffffffff1681525092505050919050565b606060018054610a4290612aa9565b80601f0160208091040260200160405190810160405280929190818152602001828054610a6e90612aa9565b8015610ab95780601f10610a9057610100808354040283529160200191610ab9565b820191905f5260205f20905b815481529060010190602001808311610a9c57829003601f168201915b5050505050905090565b610ad5610ace610cbc565b8383611132565b5050565b610aea610ae4610cbc565b83610d79565b610b29576040517f08c379a0000000000000000000000000000000000000000000000000000000008152600401610b2090612c65565b60405180910390fd5b610b3584848484611299565b50505050565b6060610b46826112f5565b9050919050565b5f610b58600b6113ff565b5f610b63600b611413565b9050610b6f848261141f565b610b79818461143c565b8091505092915050565b5f60055f8473ffffffffffffffffffffffffffffffffffffffff1673ffffffffffffffffffffffffffffffffffffffff1681526020019081526020015f205f8373ffffffffffffffffffffffffffffffffffffffff1673ffffffffffffffffffffffffffffffffffffffff1681526020019081526020015f205f9054906101000a900460ff16905092915050565b5f634906490660e01b7bffffffffffffffffffffffffffffffffffffffffffffffffffffffff1916827bffffffffffffffffffffffffffffffffffffffffffffffffffffffff19161480610c6a5750610c69826114de565b5b9050919050565b610c7a81611557565b610cb9576040517f08c379a0000000000000000000000000000000000000000000000000000000008152600401610cb090612e8a565b60405180910390fd5b50565b5f33905090565b8160045f8381526020019081526020015f205f6101000a81548173ffffffffffffffffffffffffffffffffffffffff021916908373ffffffffffffffffffffffffffffffffffffffff160217905550808273ffffffffffffffffffffffffffffffffffffffff16610d33836108a1565b73ffffffffffffffffffffffffffffffffffffffff167f8c5be1e5ebec7d5bd14f71427d1e84f3dd0314c0f7b2291e5b200ac8c7c3b92560405160405180910390a45050565b5f80610d84836108a1565b90508073ffffffffffffffffffffffffffffffffffffffff168473ffffffffffffffffffffffffffffffffffffffff161480610dc65750610dc58185610b83565b5b80610e0457508373ffffffffffffffffffffffffffffffffffffffff16610dec846104b9565b73ffffffffffffffffffffffffffffffffffffffff16145b91505092915050565b8273ffffffffffffffffffffffffffffffffffffffff16610e2d826108a1565b73ffffffffffffffffffffffffffffffffffffffff1614610e83576040517f08c379a0000000000000000000000000000000000000000000000000000000008152600401610e7a90612fa6565b60405180910390fd5b5f73ffffffffffffffffffffffffffffffffffffffff168273ffffffffffffffffffffffffffffffffffffffff1603610ef1576040517f08c379a0000000000000000000000000000000000000000000000000000000008152600401610ee890613034565b60405180910390fd5b610efe8383836001611597565b8273ffffffffffffffffffffffffffffffffffffffff16610f1e826108a1565b73ffffffffffffffffffffffffffffffffffffffff1614610f74576040517f08c379a0000000000000000000000000000000000000000000000000000000008152600401610f6b90612fa6565b60405180910390fd5b60045f8281526020019081526020015f205f6101000a81549073ffffffffffffffffffffffffffffffffffffffff0219169055600160035f8573ffffffffffffffffffffffffffffffffffffffff1673ffffffffffffffffffffffffffffffffffffffff1681526020019081526020015f205f8282540392505081905550600160035f8473ffffffffffffffffffffffffffffffffffffffff1673ffffffffffffffffffffffffffffffffffffffff1681526020019081526020015f205f82825401925050819055508160025f8381526020019081526020015f205f6101000a81548173ffffffffffffffffffffffffffffffffffffffff021916908373ffffffffffffffffffffffffffffffffffffffff160217905550808273ffffffffffffffffffffffffffffffffffffffff168473ffffffffffffffffffffffffffffffffffffffff167fddf252ad1be2c89b69c2b068fc378daa952ba7f163c4a11628f55a4df523b3ef60405160405180910390a46110f483838360016115a9565b505050565b5f60025f8381526020019081526020015f205f9054906101000a900473ffffffffffffffffffffffffffffffffffffffff169050919050565b8173ffffffffffffffffffffffffffffffffffffffff168373ffffffffffffffffffffffffffffffffffffffff16036111a0576040517f08c379a00000000000000000000000000000000000000000000000000000000081526004016111979061309c565b60405180910390fd5b8060055f8573ffffffffffffffffffffffffffffffffffffffff1673ffffffffffffffffffffffffffffffffffffffff1681526020019081526020015f205f8473ffffffffffffffffffffffffffffffffffffffff1673ffffffffffffffffffffffffffffffffffffffff1681526020019081526020015f205f6101000a81548160ff0219169083151502179055508173ffffffffffffffffffffffffffffffffffffffff168373ffffffffffffffffffffffffffffffffffffffff167f17307eab39ab6107e8899845ad3d59bd9653f200f220920489ca2b5937696c318360405161128c91906122b3565b60405180910390a3505050565b6112a4848484610e0d565b6112b0848484846115af565b6112ef576040517f08c379a00000000000000000000000000000000000000000000000000000000081526004016112e69061312a565b60405180910390fd5b50505050565b606061130082610c71565b5f600a5f8481526020019081526020015f20805461131d90612aa9565b80601f016020809104026020016040519081016040528092919081815260200182805461134990612aa9565b80156113945780601f1061136b57610100808354040283529160200191611394565b820191905f5260205f20905b81548152906001019060200180831161137757829003601f168201915b505050505090505f6113a4611731565b90505f8151036113b85781925050506113fa565b5f825111156113ec5780826040516020016113d4929190613182565b604051602081830303815290604052925050506113fa565b6113f584611747565b925050505b919050565b6001815f015f828254019250508190555050565b5f815f01549050919050565b611438828260405180602001604052805f8152506117ac565b5050565b61144582611557565b611484576040517f08c379a000000000000000000000000000000000000000000000000000000000815260040161147b90613215565b60405180910390fd5b80600a5f8481526020019081526020015f2090816114a291906133d0565b507ff8e1a15aba9398e019f0b49df1a4fde98ee17ae345cb5f6b5e2c27f5033e8ce7826040516114d291906124a3565b60405180910390a15050565b5f7f780e9d63000000000000000000000000000000000000000000000000000000007bffffffffffffffffffffffffffffffffffffffffffffffffffffffff1916827bffffffffffffffffffffffffffffffffffffffffffffffffffffffff19161480611550575061154f82611806565b5b9050919050565b5f8073ffffffffffffffffffffffffffffffffffffffff16611578836110f9565b73ffffffffffffffffffffffffffffffffffffffff1614159050919050565b6115a3848484846118e7565b50505050565b50505050565b5f6115cf8473ffffffffffffffffffffffffffffffffffffffff16611a42565b15611724578373ffffffffffffffffffffffffffffffffffffffff1663150b7a026115f8610cbc565b8786866040518563ffffffff1660e01b815260040161161a94939291906134f1565b6020604051808303815f875af192505050801561165557506040513d601f19601f82011682018060405250810190611652919061354f565b60015b6116d4573d805f8114611683576040519150601f19603f3d011682016040523d82523d5f602084013e611688565b606091505b505f8151036116cc576040517f08c379a00000000000000000000000000000000000000000000000000000000081526004016116c39061312a565b60405180910390fd5b805181602001fd5b63150b7a0260e01b7bffffffffffffffffffffffffffffffffffffffffffffffffffffffff1916817bffffffffffffffffffffffffffffffffffffffffffffffffffffffff191614915050611729565b600190505b949350505050565b606060405180602001604052805f815250905090565b606061175282610c71565b5f61175b611731565b90505f8151116117795760405180602001604052805f8152506117a4565b8061178384611a64565b604051602001611794929190613182565b6040516020818303038152906040525b915050919050565b6117b68383611b2e565b6117c25f8484846115af565b611801576040517f08c379a00000000000000000000000000000000000000000000000000000000081526004016117f89061312a565b60405180910390fd5b505050565b5f7f80ac58cd000000000000000000000000000000000000000000000000000000007bffffffffffffffffffffffffffffffffffffffffffffffffffffffff1916827bffffffffffffffffffffffffffffffffffffffffffffffffffffffff191614806118d057507f5b5e139f000000000000000000000000000000000000000000000000000000007bffffffffffffffffffffffffffffffffffffffffffffffffffffffff1916827bffffffffffffffffffffffffffffffffffffffffffffffffffffffff1916145b806118e057506118df82611d41565b5b9050919050565b6118f384848484611daa565b6001811115611937576040517f08c379a000000000000000000000000000000000000000000000000000000000815260040161192e906135ea565b60405180910390fd5b5f8290505f73ffffffffffffffffffffffffffffffffffffffff168573ffffffffffffffffffffffffffffffffffffffff160361197c5761197781611db0565b6119bb565b8373ffffffffffffffffffffffffffffffffffffffff168573ffffffffffffffffffffffffffffffffffffffff16146119ba576119b98582611df4565b5b5b5f73ffffffffffffffffffffffffffffffffffffffff168473ffffffffffffffffffffffffffffffffffffffff16036119fc576119f781611f4a565b611a3b565b8473ffffffffffffffffffffffffffffffffffffffff168473ffffffffffffffffffffffffffffffffffffffff1614611a3a57611a39848261200a565b5b5b5050505050565b5f808273ffffffffffffffffffffffffffffffffffffffff163b119050919050565b60605f6001611a7284612082565b0190505f8167ffffffffffffffff811115611a9057611a8f6127a2565b5b6040519080825280601f01601f191660200182016040528015611ac25781602001600182028036833780820191505090505b5090505f82602001820190505b600115611b23578080600190039150507f3031323334353637383961626364656600000000000000000000000000000000600a86061a8153600a8581611b1857611b17613608565b5b0494505f8503611acf575b819350505050919050565b5f73ffffffffffffffffffffffffffffffffffffffff168273ffffffffffffffffffffffffffffffffffffffff1603611b9c576040517f08c379a0000000000000000000000000000000000000000000000000000000008152600401611b939061367f565b60405180910390fd5b611ba581611557565b15611be5576040517f08c379a0000000000000000000000000000000000000000000000000000000008152600401611bdc906136e7565b60405180910390fd5b611bf25f83836001611597565b611bfb81611557565b15611c3b576040517f08c379a0000000000000000000000000000000000000000000000000000000008152600401611c32906136e7565b60405180910390fd5b600160035f8473ffffffffffffffffffffffffffffffffffffffff1673ffffffffffffffffffffffffffffffffffffffff1681526020019081526020015f205f82825401925050819055508160025f8381526020019081526020015f205f6101000a81548173ffffffffffffffffffffffffffffffffffffffff021916908373ffffffffffffffffffffffffffffffffffffffff160217905550808273ffffffffffffffffffffffffffffffffffffffff165f73ffffffffffffffffffffffffffffffffffffffff167fddf252ad1be2c89b69c2b068fc378daa952ba7f163c4a11628f55a4df523b3ef60405160405180910390a4611d3d5f838360016115a9565b5050565b5f7f01ffc9a7000000000000000000000000000000000000000000000000000000007bffffffffffffffffffffffffffffffffffffffffffffffffffffffff1916827bffffffffffffffffffffffffffffffffffffffffffffffffffffffff1916149050919050565b50505050565b60088054905060095f8381526020019081526020015f2081905550600881908060018154018082558091505060019003905f5260205f20015f909190919091505550565b5f6001611e0084610925565b611e0a9190613705565b90505f60075f8481526020019081526020015f20549050818114611ee1575f60065f8673ffffffffffffffffffffffffffffffffffffffff1673ffffffffffffffffffffffffffffffffffffffff1681526020019081526020015f205f8481526020019081526020015f205490508060065f8773ffffffffffffffffffffffffffffffffffffffff1673ffffffffffffffffffffffffffffffffffffffff1681526020019081526020015f205f8481526020019081526020015f20819055508160075f8381526020019081526020015f2081905550505b60075f8481526020019081526020015f205f905560065f8573ffffffffffffffffffffffffffffffffffffffff1673ffffffffffffffffffffffffffffffffffffffff1681526020019081526020015f205f8381526020019081526020015f205f905550505050565b5f6001600880549050611f5d9190613705565b90505f60095f8481526020019081526020015f205490505f60088381548110611f8957611f88612d11565b5b905f5260205f20015490508060088381548110611fa957611fa8612d11565b5b905f5260205f2001819055508160095f8381526020019081526020015f208190555060095f8581526020019081526020015f205f90556008805480611ff157611ff0613738565b5b600190038181905f5260205f20015f9055905550505050565b5f61201483610925565b90508160065f8573ffffffffffffffffffffffffffffffffffffffff1673ffffffffffffffffffffffffffffffffffffffff1681526020019081526020015f205f8381526020019081526020015f20819055508060075f8481526020019081526020015f2081905550505050565b5f805f90507a184f03e93ff9f4daa797ed6e38ed64bf6a1f01000000000000000083106120de577a184f03e93ff9f4daa797ed6e38ed64bf6a1f01000000000000000083816120d4576120d3613608565b5b0492506040810190505b6d04ee2d6d415b85acef8100000000831061211b576d04ee2d6d415b85acef8100000000838161211157612110613608565b5b0492506020810190505b662386f26fc10000831061214a57662386f26fc1000083816121405761213f613608565b5b0492506010810190505b6305f5e1008310612173576305f5e100838161216957612168613608565b5b0492506008810190505b612710831061219857612710838161218e5761218d613608565b5b0492506004810190505b606483106121bb57606483816121b1576121b0613608565b5b0492506002810190505b600a83106121ca576001810190505b80915050919050565b60405180606001604052805f8152602001606081526020015f73ffffffffffffffffffffffffffffffffffffffff1681525090565b5f604051905090565b5f80fd5b5f80fd5b5f7fffffffff0000000000000000000000000000000000000000000000000000000082169050919050565b61224d81612219565b8114612257575f80fd5b50565b5f8135905061226881612244565b92915050565b5f6020828403121561228357612282612211565b5b5f6122908482850161225a565b91505092915050565b5f8115159050919050565b6122ad81612299565b82525050565b5f6020820190506122c65f8301846122a4565b92915050565b5f81519050919050565b5f82825260208201905092915050565b5f5b838110156123035780820151818401526020810190506122e8565b5f8484015250505050565b5f601f19601f8301169050919050565b5f612328826122cc565b61233281856122d6565b93506123428185602086016122e6565b61234b8161230e565b840191505092915050565b5f6020820190508181035f83015261236e818461231e565b905092915050565b5f819050919050565b61238881612376565b8114612392575f80fd5b50565b5f813590506123a38161237f565b92915050565b5f602082840312156123be576123bd612211565b5b5f6123cb84828501612395565b91505092915050565b5f73ffffffffffffffffffffffffffffffffffffffff82169050919050565b5f6123fd826123d4565b9050919050565b61240d816123f3565b82525050565b5f6020820190506124265f830184612404565b92915050565b612435816123f3565b811461243f575f80fd5b50565b5f813590506124508161242c565b92915050565b5f806040838503121561246c5761246b612211565b5b5f61247985828601612442565b925050602061248a85828601612395565b9150509250929050565b61249d81612376565b82525050565b5f6020820190506124b65f830184612494565b92915050565b5f805f606084860312156124d3576124d2612211565b5b5f6124e086828701612442565b93505060206124f186828701612442565b925050604061250286828701612395565b9150509250925092565b5f6020828403121561252157612520612211565b5b5f61252e84828501612442565b91505092915050565b5f81519050919050565b5f82825260208201905092915050565b5f819050602082019050919050565b61256981612376565b82525050565b5f82825260208201905092915050565b5f612589826122cc565b612593818561256f565b93506125a38185602086016122e6565b6125ac8161230e565b840191505092915050565b6125c0816123f3565b82525050565b5f606083015f8301516125db5f860182612560565b50602083015184820360208601526125f3828261257f565b915050604083015161260860408601826125b7565b508091505092915050565b5f61261e83836125c6565b905092915050565b5f602082019050919050565b5f61263c82612537565b6126468185612541565b93508360208202850161265885612551565b805f5b8581101561269357848403895281516126748582612613565b945061267f83612626565b925060208a0199505060018101905061265b565b50829750879550505050505092915050565b5f6020820190508181035f8301526126bd8184612632565b905092915050565b5f606083015f8301516126da5f860182612560565b50602083015184820360208601526126f2828261257f565b915050604083015161270760408601826125b7565b508091505092915050565b5f6020820190508181035f83015261272a81846126c5565b905092915050565b61273b81612299565b8114612745575f80fd5b50565b5f8135905061275681612732565b92915050565b5f806040838503121561277257612771612211565b5b5f61277f85828601612442565b925050602061279085828601612748565b9150509250929050565b5f80fd5b5f80fd5b7f4e487b71000000000000000000000000000000000000000000000000000000005f52604160045260245ffd5b6127d88261230e565b810181811067ffffffffffffffff821117156127f7576127f66127a2565b5b80604052505050565b5f612809612208565b905061281582826127cf565b919050565b5f67ffffffffffffffff821115612834576128336127a2565b5b61283d8261230e565b9050602081019050919050565b828183375f83830152505050565b5f61286a6128658461281a565b612800565b9050828152602081018484840111156128865761288561279e565b5b61289184828561284a565b509392505050565b5f82601f8301126128ad576128ac61279a565b5b81356128bd848260208601612858565b91505092915050565b5f805f80608085870312156128de576128dd612211565b5b5f6128eb87828801612442565b94505060206128fc87828801612442565b935050604061290d87828801612395565b925050606085013567ffffffffffffffff81111561292e5761292d612215565b5b61293a87828801612899565b91505092959194509250565b5f67ffffffffffffffff8211156129605761295f6127a2565b5b6129698261230e565b9050602081019050919050565b5f61298861298384612946565b612800565b9050828152602081018484840111156129a4576129a361279e565b5b6129af84828561284a565b509392505050565b5f82601f8301126129cb576129ca61279a565b5b81356129db848260208601612976565b91505092915050565b5f80604083850312156129fa576129f9612211565b5b5f612a0785828601612442565b925050602083013567ffffffffffffffff811115612a2857612a27612215565b5b612a34858286016129b7565b9150509250929050565b5f8060408385031215612a5457612a53612211565b5b5f612a6185828601612442565b9250506020612a7285828601612442565b9150509250929050565b7f4e487b71000000000000000000000000000000000000000000000000000000005f52602260045260245ffd5b5f6002820490506001821680612ac057607f821691505b602082108103612ad357612ad2612a7c565b5b50919050565b7f4552433732313a20617070726f76616c20746f2063757272656e74206f776e655f8201527f7200000000000000000000000000000000000000000000000000000000000000602082015250565b5f612b336021836122d6565b9150612b3e82612ad9565b604082019050919050565b5f6020820190508181035f830152612b6081612b27565b9050919050565b7f4552433732313a20617070726f76652063616c6c6572206973206e6f7420746f5f8201527f6b656e206f776e6572206f7220617070726f76656420666f7220616c6c000000602082015250565b5f612bc1603d836122d6565b9150612bcc82612b67565b604082019050919050565b5f6020820190508181035f830152612bee81612bb5565b9050919050565b7f4552433732313a2063616c6c6572206973206e6f7420746f6b656e206f776e655f8201527f72206f7220617070726f76656400000000000000000000000000000000000000602082015250565b5f612c4f602d836122d6565b9150612c5a82612bf5565b604082019050919050565b5f6020820190508181035f830152612c7c81612c43565b9050919050565b7f455243373231456e756d657261626c653a206f776e657220696e646578206f755f8201527f74206f6620626f756e6473000000000000000000000000000000000000000000602082015250565b5f612cdd602b836122d6565b9150612ce882612c83565b604082019050919050565b5f6020820190508181035f830152612d0a81612cd1565b9050919050565b7f4e487b71000000000000000000000000000000000000000000000000000000005f52603260045260245ffd5b7f4e487b71000000000000000000000000000000000000000000000000000000005f52601160045260245ffd5b5f612d7582612376565b91507fffffffffffffffffffffffffffffffffffffffffffffffffffffffffffffffff8203612da757612da6612d3e565b5b600182019050919050565b7f455243373231456e756d657261626c653a20676c6f62616c20696e646578206f5f8201527f7574206f6620626f756e64730000000000000000000000000000000000000000602082015250565b5f612e0c602c836122d6565b9150612e1782612db2565b604082019050919050565b5f6020820190508181035f830152612e3981612e00565b9050919050565b7f4552433732313a20696e76616c696420746f6b656e20494400000000000000005f82015250565b5f612e746018836122d6565b9150612e7f82612e40565b602082019050919050565b5f6020820190508181035f830152612ea181612e68565b9050919050565b7f4552433732313a2061646472657373207a65726f206973206e6f7420612076615f8201527f6c6964206f776e65720000000000000000000000000000000000000000000000602082015250565b5f612f026029836122d6565b9150612f0d82612ea8565b604082019050919050565b5f6020820190508181035f830152612f2f81612ef6565b9050919050565b7f4552433732313a207472616e736665722066726f6d20696e636f7272656374205f8201527f6f776e6572000000000000000000000000000000000000000000000000000000602082015250565b5f612f906025836122d6565b9150612f9b82612f36565b604082019050919050565b5f6020820190508181035f830152612fbd81612f84565b9050919050565b7f4552433732313a207472616e7366657220746f20746865207a65726f206164645f8201527f7265737300000000000000000000000000000000000000000000000000000000602082015250565b5f61301e6024836122d6565b915061302982612fc4565b604082019050919050565b5f6020820190508181035f83015261304b81613012565b9050919050565b7f4552433732313a20617070726f766520746f2063616c6c6572000000000000005f82015250565b5f6130866019836122d6565b915061309182613052565b602082019050919050565b5f6020820190508181035f8301526130b38161307a565b9050919050565b7f4552433732313a207472616e7366657220746f206e6f6e2045524337323152655f8201527f63656976657220696d706c656d656e7465720000000000000000000000000000602082015250565b5f6131146032836122d6565b915061311f826130ba565b604082019050919050565b5f6020820190508181035f83015261314181613108565b9050919050565b5f81905092915050565b5f61315c826122cc565b6131668185613148565b93506131768185602086016122e6565b80840191505092915050565b5f61318d8285613152565b91506131998284613152565b91508190509392505050565b7f45524337323155524953746f726167653a2055524920736574206f66206e6f6e5f8201527f6578697374656e7420746f6b656e000000000000000000000000000000000000602082015250565b5f6131ff602e836122d6565b915061320a826131a5565b604082019050919050565b5f6020820190508181035f83015261322c816131f3565b9050919050565b5f819050815f5260205f209050919050565b5f6020601f8301049050919050565b5f82821b905092915050565b5f6008830261328f7fffffffffffffffffffffffffffffffffffffffffffffffffffffffffffffffff82613254565b6132998683613254565b95508019841693508086168417925050509392505050565b5f819050919050565b5f6132d46132cf6132ca84612376565b6132b1565b612376565b9050919050565b5f819050919050565b6132ed836132ba565b6133016132f9826132db565b848454613260565b825550505050565b5f90565b613315613309565b6133208184846132e4565b505050565b5b81811015613343576133385f8261330d565b600181019050613326565b5050565b601f8211156133885761335981613233565b61336284613245565b81016020851015613371578190505b61338561337d85613245565b830182613325565b50505b505050565b5f82821c905092915050565b5f6133a85f198460080261338d565b1980831691505092915050565b5f6133c08383613399565b9150826002028217905092915050565b6133d9826122cc565b67ffffffffffffffff8111156133f2576133f16127a2565b5b6133fc8254612aa9565b613407828285613347565b5f60209050601f831160018114613438575f8415613426578287015190505b61343085826133b5565b865550613497565b601f19841661344686613233565b5f5b8281101561346d57848901518255600182019150602085019450602081019050613448565b8683101561348a5784890151613486601f891682613399565b8355505b6001600288020188555050505b505050505050565b5f81519050919050565b5f82825260208201905092915050565b5f6134c38261349f565b6134cd81856134a9565b93506134dd8185602086016122e6565b6134e68161230e565b840191505092915050565b5f6080820190506135045f830187612404565b6135116020830186612404565b61351e6040830185612494565b818103606083015261353081846134b9565b905095945050505050565b5f8151905061354981612244565b92915050565b5f6020828403121561356457613563612211565b5b5f6135718482850161353b565b91505092915050565b7f455243373231456e756d657261626c653a20636f6e73656375746976652074725f8201527f616e7366657273206e6f7420737570706f727465640000000000000000000000602082015250565b5f6135d46035836122d6565b91506135df8261357a565b604082019050919050565b5f6020820190508181035f830152613601816135c8565b9050919050565b7f4e487b71000000000000000000000000000000000000000000000000000000005f52601260045260245ffd5b7f4552433732313a206d696e7420746f20746865207a65726f20616464726573735f82015250565b5f6136696020836122d6565b915061367482613635565b602082019050919050565b5f6020820190508181035f8301526136968161365d565b9050919050565b7f4552433732313a20746f6b656e20616c7265616479206d696e746564000000005f82015250565b5f6136d1601c836122d6565b91506136dc8261369d565b602082019050919050565b5f6020820190508181035f8301526136fe816136c5565b9050919050565b5f61370f82612376565b915061371a83612376565b925082820390508181111561373257613731612d3e565b5b92915050565b7f4e487b71000000000000000000000000000000000000000000000000000000005f52603160045260245ffdfea264697066735822122019be375ec65b7bab9c134c998a43833a3cf5aa4e8ff0a8f71fb8255f8385ddb964736f6c63430008140033",
  "immutableReferences": {},
  "source": "//Contract based on [https://docs.openzeppelin.com/contracts/4.x/erc721](https://docs.openzeppelin.com/contracts/4.x/erc721)\r\n// SPDX-License-Identifier: MIT\r\npragma solidity ^0.8.13;\r\n\r\nimport \"@openzeppelin/contracts/token/ERC721/ERC721.sol\";\r\nimport \"@openzeppelin/contracts/token/ERC721/extensions/ERC721Enumerable.sol\";\r\nimport \"@openzeppelin/contracts/token/ERC721/extensions/ERC721URIStorage.sol\";\r\nimport \"@openzeppelin/contracts/utils/Counters.sol\";\r\nimport \"@openzeppelin/contracts/access/Ownable.sol\";\r\n\r\ncontract aiverseNFT is ERC721, ERC721Enumerable, ERC721URIStorage {\r\n    using Counters for Counters.Counter;\r\n    Counters.Counter private _tokenIds;\r\n\r\n    struct Token {\r\n        uint256 tokenId;\r\n        string tokenURI;\r\n        address owner;\r\n    }\r\n\r\n    constructor() ERC721(\"Aiverse NFT\", \"NFT\") {}\r\n\r\n    function safeMint(\r\n        address recipient,\r\n        string memory _tokenURI\r\n    ) public returns (uint256) {\r\n        _tokenIds.increment();\r\n\r\n        uint256 newItemId = _tokenIds.current();\r\n        _safeMint(recipient, newItemId);\r\n        _setTokenURI(newItemId, _tokenURI);\r\n\r\n        return newItemId;\r\n    }\r\n\r\n    function _beforeTokenTransfer(\r\n        address from,\r\n        address to,\r\n        uint256 firstTokenId,\r\n        uint256 batchSize\r\n    ) internal override(ERC721, ERC721Enumerable) {\r\n        super._beforeTokenTransfer(from, to, firstTokenId, batchSize);\r\n    }\r\n\r\n    function _burn(\r\n        uint256 tokenId\r\n    ) internal override(ERC721, ERC721URIStorage) {\r\n        super._burn(tokenId);\r\n    }\r\n\r\n    function tokenURI(\r\n        uint256 tokenId\r\n    ) public view override(ERC721, ERC721URIStorage) returns (string memory) {\r\n        return super.tokenURI(tokenId);\r\n    }\r\n\r\n    function supportsInterface(\r\n        bytes4 interfaceId\r\n    )\r\n        public\r\n        view\r\n        override(ERC721, ERC721Enumerable, ERC721URIStorage)\r\n        returns (bool)\r\n    {\r\n        return super.supportsInterface(interfaceId);\r\n    }\r\n\r\n    function getTokensByOwner(\r\n        address owner\r\n    ) public view returns (Token[] memory) {\r\n        uint256 balance = balanceOf(owner);\r\n        Token[] memory tokens = new Token[](balance);\r\n\r\n        for (uint256 i = 0; i < balance; i++) {\r\n            uint256 tokenId = tokenOfOwnerByIndex(owner, i);\r\n            string memory _tokenURI = tokenURI(tokenId);\r\n            tokens[i] = Token(tokenId, _tokenURI, owner);\r\n        }\r\n\r\n        return tokens;\r\n    }\r\n\r\n    function getTokenById(uint256 tokenId) public view returns (Token memory) {\r\n        address owner = ownerOf(tokenId);\r\n        string memory _tokenURI = tokenURI(tokenId);\r\n        return Token(tokenId, _tokenURI, owner);\r\n    }\r\n}\r\n",
  "sourcePath": "E:\\projects\\octatec\\aiverse\\airvese-app\\eth\\contracts\\aiverse-nft.sol",
  "compiler": {
    "name": "solc",
    "version": "0.8.20+commit.a1b79de6.Emscripten.clang"
  },
  "schemaVersion": "3.4.14",
  "updatedAt": "2023-07-03T17:25:49.666Z",
  "networkType": "ethereum",
  "devdoc": {
    "events": {
      "Approval(address,address,uint256)": {
        "details": "Emitted when `owner` enables `approved` to manage the `tokenId` token."
      },
      "ApprovalForAll(address,address,bool)": {
        "details": "Emitted when `owner` enables or disables (`approved`) `operator` to manage all of its assets."
      },
      "BatchMetadataUpdate(uint256,uint256)": {
        "details": "This event emits when the metadata of a range of tokens is changed. So that the third-party platforms such as NFT market could timely update the images and related attributes of the NFTs."
      },
      "MetadataUpdate(uint256)": {
        "details": "This event emits when the metadata of a token is changed. So that the third-party platforms such as NFT market could timely update the images and related attributes of the NFT."
      },
      "Transfer(address,address,uint256)": {
        "details": "Emitted when `tokenId` token is transferred from `from` to `to`."
      }
    },
    "kind": "dev",
    "methods": {
      "approve(address,uint256)": {
        "details": "See {IERC721-approve}."
      },
      "balanceOf(address)": {
        "details": "See {IERC721-balanceOf}."
      },
      "getApproved(uint256)": {
        "details": "See {IERC721-getApproved}."
      },
      "isApprovedForAll(address,address)": {
        "details": "See {IERC721-isApprovedForAll}."
      },
      "name()": {
        "details": "See {IERC721Metadata-name}."
      },
      "ownerOf(uint256)": {
        "details": "See {IERC721-ownerOf}."
      },
      "safeTransferFrom(address,address,uint256)": {
        "details": "See {IERC721-safeTransferFrom}."
      },
      "safeTransferFrom(address,address,uint256,bytes)": {
        "details": "See {IERC721-safeTransferFrom}."
      },
      "setApprovalForAll(address,bool)": {
        "details": "See {IERC721-setApprovalForAll}."
      },
      "symbol()": {
        "details": "See {IERC721Metadata-symbol}."
      },
      "tokenByIndex(uint256)": {
        "details": "See {IERC721Enumerable-tokenByIndex}."
      },
      "tokenOfOwnerByIndex(address,uint256)": {
        "details": "See {IERC721Enumerable-tokenOfOwnerByIndex}."
      },
      "totalSupply()": {
        "details": "See {IERC721Enumerable-totalSupply}."
      },
      "transferFrom(address,address,uint256)": {
        "details": "See {IERC721-transferFrom}."
      }
    },
    "version": 1
  },
  "userdoc": {
    "kind": "user",
    "methods": {},
    "version": 1
  }
}