{
  "contractName": "aiverseNFT",
  "abi": [
    {
      "inputs": [],
      "stateMutability": "nonpayable",
      "type": "constructor"
    },
    {
      "anonymous": false,
      "inputs": [
        {
          "indexed": true,
          "internalType": "address",
          "name": "owner",
          "type": "address"
        },
        {
          "indexed": true,
          "internalType": "address",
          "name": "approved",
          "type": "address"
        },
        {
          "indexed": true,
          "internalType": "uint256",
          "name": "tokenId",
          "type": "uint256"
        }
      ],
      "name": "Approval",
      "type": "event"
    },
    {
      "anonymous": false,
      "inputs": [
        {
          "indexed": true,
          "internalType": "address",
          "name": "owner",
          "type": "address"
        },
        {
          "indexed": true,
          "internalType": "address",
          "name": "operator",
          "type": "address"
        },
        {
          "indexed": false,
          "internalType": "bool",
          "name": "approved",
          "type": "bool"
        }
      ],
      "name": "ApprovalForAll",
      "type": "event"
    },
    {
      "anonymous": false,
      "inputs": [
        {
          "indexed": false,
          "internalType": "uint256",
          "name": "_fromTokenId",
          "type": "uint256"
        },
        {
          "indexed": false,
          "internalType": "uint256",
          "name": "_toTokenId",
          "type": "uint256"
        }
      ],
      "name": "BatchMetadataUpdate",
      "type": "event"
    },
    {
      "anonymous": false,
      "inputs": [
        {
          "indexed": false,
          "internalType": "uint256",
          "name": "_tokenId",
          "type": "uint256"
        }
      ],
      "name": "MetadataUpdate",
      "type": "event"
    },
    {
      "anonymous": false,
      "inputs": [
        {
          "indexed": true,
          "internalType": "address",
          "name": "from",
          "type": "address"
        },
        {
          "indexed": true,
          "internalType": "address",
          "name": "to",
          "type": "address"
        },
        {
          "indexed": true,
          "internalType": "uint256",
          "name": "tokenId",
          "type": "uint256"
        }
      ],
      "name": "Transfer",
      "type": "event"
    },
    {
      "inputs": [
        {
          "internalType": "address",
          "name": "to",
          "type": "address"
        },
        {
          "internalType": "uint256",
          "name": "tokenId",
          "type": "uint256"
        }
      ],
      "name": "approve",
      "outputs": [],
      "stateMutability": "nonpayable",
      "type": "function"
    },
    {
      "inputs": [
        {
          "internalType": "address",
          "name": "owner",
          "type": "address"
        }
      ],
      "name": "balanceOf",
      "outputs": [
        {
          "internalType": "uint256",
          "name": "",
          "type": "uint256"
        }
      ],
      "stateMutability": "view",
      "type": "function",
      "constant": true
    },
    {
      "inputs": [
        {
          "internalType": "uint256",
          "name": "tokenId",
          "type": "uint256"
        }
      ],
      "name": "getApproved",
      "outputs": [
        {
          "internalType": "address",
          "name": "",
          "type": "address"
        }
      ],
      "stateMutability": "view",
      "type": "function",
      "constant": true
    },
    {
      "inputs": [
        {
          "internalType": "address",
          "name": "owner",
          "type": "address"
        },
        {
          "internalType": "address",
          "name": "operator",
          "type": "address"
        }
      ],
      "name": "isApprovedForAll",
      "outputs": [
        {
          "internalType": "bool",
          "name": "",
          "type": "bool"
        }
      ],
      "stateMutability": "view",
      "type": "function",
      "constant": true
    },
    {
      "inputs": [],
      "name": "name",
      "outputs": [
        {
          "internalType": "string",
          "name": "",
          "type": "string"
        }
      ],
      "stateMutability": "view",
      "type": "function",
      "constant": true
    },
    {
      "inputs": [
        {
          "internalType": "uint256",
          "name": "tokenId",
          "type": "uint256"
        }
      ],
      "name": "ownerOf",
      "outputs": [
        {
          "internalType": "address",
          "name": "",
          "type": "address"
        }
      ],
      "stateMutability": "view",
      "type": "function",
      "constant": true
    },
    {
      "inputs": [
        {
          "internalType": "address",
          "name": "from",
          "type": "address"
        },
        {
          "internalType": "address",
          "name": "to",
          "type": "address"
        },
        {
          "internalType": "uint256",
          "name": "tokenId",
          "type": "uint256"
        }
      ],
      "name": "safeTransferFrom",
      "outputs": [],
      "stateMutability": "nonpayable",
      "type": "function"
    },
    {
      "inputs": [
        {
          "internalType": "address",
          "name": "from",
          "type": "address"
        },
        {
          "internalType": "address",
          "name": "to",
          "type": "address"
        },
        {
          "internalType": "uint256",
          "name": "tokenId",
          "type": "uint256"
        },
        {
          "internalType": "bytes",
          "name": "data",
          "type": "bytes"
        }
      ],
      "name": "safeTransferFrom",
      "outputs": [],
      "stateMutability": "nonpayable",
      "type": "function"
    },
    {
      "inputs": [
        {
          "internalType": "address",
          "name": "operator",
          "type": "address"
        },
        {
          "internalType": "bool",
          "name": "approved",
          "type": "bool"
        }
      ],
      "name": "setApprovalForAll",
      "outputs": [],
      "stateMutability": "nonpayable",
      "type": "function"
    },
    {
      "inputs": [],
      "name": "symbol",
      "outputs": [
        {
          "internalType": "string",
          "name": "",
          "type": "string"
        }
      ],
      "stateMutability": "view",
      "type": "function",
      "constant": true
    },
    {
      "inputs": [
        {
          "internalType": "uint256",
          "name": "index",
          "type": "uint256"
        }
      ],
      "name": "tokenByIndex",
      "outputs": [
        {
          "internalType": "uint256",
          "name": "",
          "type": "uint256"
        }
      ],
      "stateMutability": "view",
      "type": "function",
      "constant": true
    },
    {
      "inputs": [
        {
          "internalType": "address",
          "name": "owner",
          "type": "address"
        },
        {
          "internalType": "uint256",
          "name": "index",
          "type": "uint256"
        }
      ],
      "name": "tokenOfOwnerByIndex",
      "outputs": [
        {
          "internalType": "uint256",
          "name": "",
          "type": "uint256"
        }
      ],
      "stateMutability": "view",
      "type": "function",
      "constant": true
    },
    {
      "inputs": [],
      "name": "totalSupply",
      "outputs": [
        {
          "internalType": "uint256",
          "name": "",
          "type": "uint256"
        }
      ],
      "stateMutability": "view",
      "type": "function",
      "constant": true
    },
    {
      "inputs": [
        {
          "internalType": "address",
          "name": "from",
          "type": "address"
        },
        {
          "internalType": "address",
          "name": "to",
          "type": "address"
        },
        {
          "internalType": "uint256",
          "name": "tokenId",
          "type": "uint256"
        }
      ],
      "name": "transferFrom",
      "outputs": [],
      "stateMutability": "nonpayable",
      "type": "function"
    },
    {
      "inputs": [
        {
          "internalType": "address",
          "name": "recipient",
          "type": "address"
        },
        {
          "internalType": "string",
          "name": "tokenURI",
          "type": "string"
        }
      ],
      "name": "safeMint",
      "outputs": [
        {
          "internalType": "uint256",
          "name": "",
          "type": "uint256"
        }
      ],
      "stateMutability": "nonpayable",
      "type": "function"
    },
    {
      "inputs": [
        {
          "internalType": "uint256",
          "name": "tokenId",
          "type": "uint256"
        }
      ],
      "name": "tokenURI",
      "outputs": [
        {
          "internalType": "string",
          "name": "",
          "type": "string"
        }
      ],
      "stateMutability": "view",
      "type": "function",
      "constant": true
    },
    {
      "inputs": [
        {
          "internalType": "bytes4",
          "name": "interfaceId",
          "type": "bytes4"
        }
      ],
      "name": "supportsInterface",
      "outputs": [
        {
          "internalType": "bool",
          "name": "",
          "type": "bool"
        }
      ],
      "stateMutability": "view",
      "type": "function",
      "constant": true
    },
    {
      "inputs": [
        {
          "internalType": "address",
          "name": "owner",
          "type": "address"
        }
      ],
      "name": "getTokensByOwner",
      "outputs": [
        {
          "components": [
            {
              "internalType": "uint256",
              "name": "tokenId",
              "type": "uint256"
            },
            {
              "internalType": "string",
              "name": "tokenURI",
              "type": "string"
            }
          ],
          "internalType": "struct aiverseNFT.TokenInfo[]",
          "name": "",
          "type": "tuple[]"
        }
      ],
      "stateMutability": "view",
      "type": "function",
      "constant": true
    }
  ],
  "bytecode": "0x608060405234801562000010575f80fd5b506040518060400160405280600b81526020017f41697665727365204e46540000000000000000000000000000000000000000008152506040518060400160405280600381526020017f4e46540000000000000000000000000000000000000000000000000000000000815250815f90816200008d91906200030c565b5080600190816200009f91906200030c565b505050620003f0565b5f81519050919050565b7f4e487b71000000000000000000000000000000000000000000000000000000005f52604160045260245ffd5b7f4e487b71000000000000000000000000000000000000000000000000000000005f52602260045260245ffd5b5f60028204905060018216806200012457607f821691505b6020821081036200013a5762000139620000df565b5b50919050565b5f819050815f5260205f209050919050565b5f6020601f8301049050919050565b5f82821b905092915050565b5f600883026200019e7fffffffffffffffffffffffffffffffffffffffffffffffffffffffffffffffff8262000161565b620001aa868362000161565b95508019841693508086168417925050509392505050565b5f819050919050565b5f819050919050565b5f620001f4620001ee620001e884620001c2565b620001cb565b620001c2565b9050919050565b5f819050919050565b6200020f83620001d4565b620002276200021e82620001fb565b8484546200016d565b825550505050565b5f90565b6200023d6200022f565b6200024a81848462000204565b505050565b5b818110156200027157620002655f8262000233565b60018101905062000250565b5050565b601f821115620002c0576200028a8162000140565b620002958462000152565b81016020851015620002a5578190505b620002bd620002b48562000152565b8301826200024f565b50505b505050565b5f82821c905092915050565b5f620002e25f1984600802620002c5565b1980831691505092915050565b5f620002fc8383620002d1565b9150826002028217905092915050565b6200031782620000a8565b67ffffffffffffffff811115620003335762000332620000b2565b5b6200033f82546200010c565b6200034c82828562000275565b5f60209050601f83116001811462000382575f84156200036d578287015190505b620003798582620002ef565b865550620003e8565b601f198416620003928662000140565b5f5b82811015620003bb5784890151825560018201915060208501945060208101905062000394565b86831015620003db5784890151620003d7601f891682620002d1565b8355505b6001600288020188555050505b505050505050565b61363f80620003fe5f395ff3fe608060405234801561000f575f80fd5b5060043610610114575f3560e01c80634f6ccce7116100a0578063a22cb4651161006f578063a22cb46514610316578063b88d4fde14610332578063c87b56dd1461034e578063d204c45e1461037e578063e985e9c5146103ae57610114565b80634f6ccce7146102685780636352211e1461029857806370a08231146102c857806395d89b41146102f857610114565b806318160ddd116100e757806318160ddd146101b257806323b872dd146101d05780632f745c59146101ec57806340398d671461021c57806342842e0e1461024c57610114565b806301ffc9a71461011857806306fdde0314610148578063081812fc14610166578063095ea7b314610196575b5f80fd5b610132600480360381019061012d91906121a1565b6103de565b60405161013f91906121e6565b60405180910390f35b6101506103ef565b60405161015d9190612289565b60405180910390f35b610180600480360381019061017b91906122dc565b61047e565b60405161018d9190612346565b60405180910390f35b6101b060048036038101906101ab9190612389565b6104c0565b005b6101ba6105d6565b6040516101c791906123d6565b60405180910390f35b6101ea60048036038101906101e591906123ef565b6105e2565b005b61020660048036038101906102019190612389565b610642565b60405161021391906123d6565b60405180910390f35b6102366004803603810190610231919061243f565b6106e2565b60405161024391906125b6565b60405180910390f35b610266600480360381019061026191906123ef565b6107bd565b005b610282600480360381019061027d91906122dc565b6107dc565b60405161028f91906123d6565b60405180910390f35b6102b260048036038101906102ad91906122dc565b61084a565b6040516102bf9190612346565b60405180910390f35b6102e260048036038101906102dd919061243f565b6108ce565b6040516102ef91906123d6565b60405180910390f35b610300610982565b60405161030d9190612289565b60405180910390f35b610330600480360381019061032b9190612600565b610a12565b005b61034c6004803603810190610347919061276a565b610a28565b005b610368600480360381019061036391906122dc565b610a8a565b6040516103759190612289565b60405180910390f35b61039860048036038101906103939190612888565b610a9c565b6040516103a591906123d6565b60405180910390f35b6103c860048036038101906103c391906128e2565b610ad2565b6040516103d591906121e6565b60405180910390f35b5f6103e882610b60565b9050919050565b60605f80546103fd9061294d565b80601f01602080910402602001604051908101604052809291908181526020018280546104299061294d565b80156104745780601f1061044b57610100808354040283529160200191610474565b820191905f5260205f20905b81548152906001019060200180831161045757829003601f168201915b5050505050905090565b5f61048882610bc0565b60045f8381526020019081526020015f205f9054906101000a900473ffffffffffffffffffffffffffffffffffffffff169050919050565b5f6104ca8261084a565b90508073ffffffffffffffffffffffffffffffffffffffff168373ffffffffffffffffffffffffffffffffffffffff160361053a576040517f08c379a0000000000000000000000000000000000000000000000000000000008152600401610531906129ed565b60405180910390fd5b8073ffffffffffffffffffffffffffffffffffffffff16610559610c0b565b73ffffffffffffffffffffffffffffffffffffffff161480610588575061058781610582610c0b565b610ad2565b5b6105c7576040517f08c379a00000000000000000000000000000000000000000000000000000000081526004016105be90612a7b565b60405180910390fd5b6105d18383610c12565b505050565b5f600880549050905090565b6105f36105ed610c0b565b82610cc8565b610632576040517f08c379a000000000000000000000000000000000000000000000000000000000815260040161062990612b09565b60405180910390fd5b61063d838383610d5c565b505050565b5f61064c836108ce565b821061068d576040517f08c379a000000000000000000000000000000000000000000000000000000000815260040161068490612b97565b60405180910390fd5b60065f8473ffffffffffffffffffffffffffffffffffffffff1673ffffffffffffffffffffffffffffffffffffffff1681526020019081526020015f205f8381526020019081526020015f2054905092915050565b60605f6106ee836108ce565b90505f8167ffffffffffffffff81111561070b5761070a612646565b5b60405190808252806020026020018201604052801561074457816020015b610731612122565b8152602001906001900390816107295790505b5090505f5b828110156107b2575f61075c8683610642565b90505f61076882610a8a565b905060405180604001604052808381526020018281525084848151811061079257610791612bb5565b5b6020026020010181905250505080806107aa90612c0f565b915050610749565b508092505050919050565b6107d783838360405180602001604052805f815250610a28565b505050565b5f6107e56105d6565b8210610826576040517f08c379a000000000000000000000000000000000000000000000000000000000815260040161081d90612cc6565b60405180910390fd5b6008828154811061083a57610839612bb5565b5b905f5260205f2001549050919050565b5f8061085583611048565b90505f73ffffffffffffffffffffffffffffffffffffffff168173ffffffffffffffffffffffffffffffffffffffff16036108c5576040517f08c379a00000000000000000000000000000000000000000000000000000000081526004016108bc90612d2e565b60405180910390fd5b80915050919050565b5f8073ffffffffffffffffffffffffffffffffffffffff168273ffffffffffffffffffffffffffffffffffffffff160361093d576040517f08c379a000000000000000000000000000000000000000000000000000000000815260040161093490612dbc565b60405180910390fd5b60035f8373ffffffffffffffffffffffffffffffffffffffff1673ffffffffffffffffffffffffffffffffffffffff1681526020019081526020015f20549050919050565b6060600180546109919061294d565b80601f01602080910402602001604051908101604052809291908181526020018280546109bd9061294d565b8015610a085780601f106109df57610100808354040283529160200191610a08565b820191905f5260205f20905b8154815290600101906020018083116109eb57829003601f168201915b5050505050905090565b610a24610a1d610c0b565b8383611081565b5050565b610a39610a33610c0b565b83610cc8565b610a78576040517f08c379a0000000000000000000000000000000000000000000000000000000008152600401610a6f90612b09565b60405180910390fd5b610a84848484846111e8565b50505050565b6060610a9582611244565b9050919050565b5f610aa7600b61134e565b5f610ab2600b611362565b9050610abe848261136e565b610ac8818461138b565b8091505092915050565b5f60055f8473ffffffffffffffffffffffffffffffffffffffff1673ffffffffffffffffffffffffffffffffffffffff1681526020019081526020015f205f8373ffffffffffffffffffffffffffffffffffffffff1673ffffffffffffffffffffffffffffffffffffffff1681526020019081526020015f205f9054906101000a900460ff16905092915050565b5f634906490660e01b7bffffffffffffffffffffffffffffffffffffffffffffffffffffffff1916827bffffffffffffffffffffffffffffffffffffffffffffffffffffffff19161480610bb95750610bb88261142d565b5b9050919050565b610bc9816114a6565b610c08576040517f08c379a0000000000000000000000000000000000000000000000000000000008152600401610bff90612d2e565b60405180910390fd5b50565b5f33905090565b8160045f8381526020019081526020015f205f6101000a81548173ffffffffffffffffffffffffffffffffffffffff021916908373ffffffffffffffffffffffffffffffffffffffff160217905550808273ffffffffffffffffffffffffffffffffffffffff16610c828361084a565b73ffffffffffffffffffffffffffffffffffffffff167f8c5be1e5ebec7d5bd14f71427d1e84f3dd0314c0f7b2291e5b200ac8c7c3b92560405160405180910390a45050565b5f80610cd38361084a565b90508073ffffffffffffffffffffffffffffffffffffffff168473ffffffffffffffffffffffffffffffffffffffff161480610d155750610d148185610ad2565b5b80610d5357508373ffffffffffffffffffffffffffffffffffffffff16610d3b8461047e565b73ffffffffffffffffffffffffffffffffffffffff16145b91505092915050565b8273ffffffffffffffffffffffffffffffffffffffff16610d7c8261084a565b73ffffffffffffffffffffffffffffffffffffffff1614610dd2576040517f08c379a0000000000000000000000000000000000000000000000000000000008152600401610dc990612e4a565b60405180910390fd5b5f73ffffffffffffffffffffffffffffffffffffffff168273ffffffffffffffffffffffffffffffffffffffff1603610e40576040517f08c379a0000000000000000000000000000000000000000000000000000000008152600401610e3790612ed8565b60405180910390fd5b610e4d83838360016114e6565b8273ffffffffffffffffffffffffffffffffffffffff16610e6d8261084a565b73ffffffffffffffffffffffffffffffffffffffff1614610ec3576040517f08c379a0000000000000000000000000000000000000000000000000000000008152600401610eba90612e4a565b60405180910390fd5b60045f8281526020019081526020015f205f6101000a81549073ffffffffffffffffffffffffffffffffffffffff0219169055600160035f8573ffffffffffffffffffffffffffffffffffffffff1673ffffffffffffffffffffffffffffffffffffffff1681526020019081526020015f205f8282540392505081905550600160035f8473ffffffffffffffffffffffffffffffffffffffff1673ffffffffffffffffffffffffffffffffffffffff1681526020019081526020015f205f82825401925050819055508160025f8381526020019081526020015f205f6101000a81548173ffffffffffffffffffffffffffffffffffffffff021916908373ffffffffffffffffffffffffffffffffffffffff160217905550808273ffffffffffffffffffffffffffffffffffffffff168473ffffffffffffffffffffffffffffffffffffffff167fddf252ad1be2c89b69c2b068fc378daa952ba7f163c4a11628f55a4df523b3ef60405160405180910390a461104383838360016114f8565b505050565b5f60025f8381526020019081526020015f205f9054906101000a900473ffffffffffffffffffffffffffffffffffffffff169050919050565b8173ffffffffffffffffffffffffffffffffffffffff168373ffffffffffffffffffffffffffffffffffffffff16036110ef576040517f08c379a00000000000000000000000000000000000000000000000000000000081526004016110e690612f40565b60405180910390fd5b8060055f8573ffffffffffffffffffffffffffffffffffffffff1673ffffffffffffffffffffffffffffffffffffffff1681526020019081526020015f205f8473ffffffffffffffffffffffffffffffffffffffff1673ffffffffffffffffffffffffffffffffffffffff1681526020019081526020015f205f6101000a81548160ff0219169083151502179055508173ffffffffffffffffffffffffffffffffffffffff168373ffffffffffffffffffffffffffffffffffffffff167f17307eab39ab6107e8899845ad3d59bd9653f200f220920489ca2b5937696c31836040516111db91906121e6565b60405180910390a3505050565b6111f3848484610d5c565b6111ff848484846114fe565b61123e576040517f08c379a000000000000000000000000000000000000000000000000000000000815260040161123590612fce565b60405180910390fd5b50505050565b606061124f82610bc0565b5f600a5f8481526020019081526020015f20805461126c9061294d565b80601f01602080910402602001604051908101604052809291908181526020018280546112989061294d565b80156112e35780601f106112ba576101008083540402835291602001916112e3565b820191905f5260205f20905b8154815290600101906020018083116112c657829003601f168201915b505050505090505f6112f3611680565b90505f815103611307578192505050611349565b5f8251111561133b578082604051602001611323929190613026565b60405160208183030381529060405292505050611349565b61134484611696565b925050505b919050565b6001815f015f828254019250508190555050565b5f815f01549050919050565b611387828260405180602001604052805f8152506116fb565b5050565b611394826114a6565b6113d3576040517f08c379a00000000000000000000000000000000000000000000000000000000081526004016113ca906130b9565b60405180910390fd5b80600a5f8481526020019081526020015f2090816113f19190613274565b507ff8e1a15aba9398e019f0b49df1a4fde98ee17ae345cb5f6b5e2c27f5033e8ce78260405161142191906123d6565b60405180910390a15050565b5f7f780e9d63000000000000000000000000000000000000000000000000000000007bffffffffffffffffffffffffffffffffffffffffffffffffffffffff1916827bffffffffffffffffffffffffffffffffffffffffffffffffffffffff1916148061149f575061149e82611755565b5b9050919050565b5f8073ffffffffffffffffffffffffffffffffffffffff166114c783611048565b73ffffffffffffffffffffffffffffffffffffffff1614159050919050565b6114f284848484611836565b50505050565b50505050565b5f61151e8473ffffffffffffffffffffffffffffffffffffffff16611991565b15611673578373ffffffffffffffffffffffffffffffffffffffff1663150b7a02611547610c0b565b8786866040518563ffffffff1660e01b81526004016115699493929190613395565b6020604051808303815f875af19250505080156115a457506040513d601f19601f820116820180604052508101906115a191906133f3565b60015b611623573d805f81146115d2576040519150601f19603f3d011682016040523d82523d5f602084013e6115d7565b606091505b505f81510361161b576040517f08c379a000000000000000000000000000000000000000000000000000000000815260040161161290612fce565b60405180910390fd5b805181602001fd5b63150b7a0260e01b7bffffffffffffffffffffffffffffffffffffffffffffffffffffffff1916817bffffffffffffffffffffffffffffffffffffffffffffffffffffffff191614915050611678565b600190505b949350505050565b606060405180602001604052805f815250905090565b60606116a182610bc0565b5f6116aa611680565b90505f8151116116c85760405180602001604052805f8152506116f3565b806116d2846119b3565b6040516020016116e3929190613026565b6040516020818303038152906040525b915050919050565b6117058383611a7d565b6117115f8484846114fe565b611750576040517f08c379a000000000000000000000000000000000000000000000000000000000815260040161174790612fce565b60405180910390fd5b505050565b5f7f80ac58cd000000000000000000000000000000000000000000000000000000007bffffffffffffffffffffffffffffffffffffffffffffffffffffffff1916827bffffffffffffffffffffffffffffffffffffffffffffffffffffffff1916148061181f57507f5b5e139f000000000000000000000000000000000000000000000000000000007bffffffffffffffffffffffffffffffffffffffffffffffffffffffff1916827bffffffffffffffffffffffffffffffffffffffffffffffffffffffff1916145b8061182f575061182e82611c90565b5b9050919050565b61184284848484611cf9565b6001811115611886576040517f08c379a000000000000000000000000000000000000000000000000000000000815260040161187d9061348e565b60405180910390fd5b5f8290505f73ffffffffffffffffffffffffffffffffffffffff168573ffffffffffffffffffffffffffffffffffffffff16036118cb576118c681611cff565b61190a565b8373ffffffffffffffffffffffffffffffffffffffff168573ffffffffffffffffffffffffffffffffffffffff1614611909576119088582611d43565b5b5b5f73ffffffffffffffffffffffffffffffffffffffff168473ffffffffffffffffffffffffffffffffffffffff160361194b5761194681611e99565b61198a565b8473ffffffffffffffffffffffffffffffffffffffff168473ffffffffffffffffffffffffffffffffffffffff1614611989576119888482611f59565b5b5b5050505050565b5f808273ffffffffffffffffffffffffffffffffffffffff163b119050919050565b60605f60016119c184611fd1565b0190505f8167ffffffffffffffff8111156119df576119de612646565b5b6040519080825280601f01601f191660200182016040528015611a115781602001600182028036833780820191505090505b5090505f82602001820190505b600115611a72578080600190039150507f3031323334353637383961626364656600000000000000000000000000000000600a86061a8153600a8581611a6757611a666134ac565b5b0494505f8503611a1e575b819350505050919050565b5f73ffffffffffffffffffffffffffffffffffffffff168273ffffffffffffffffffffffffffffffffffffffff1603611aeb576040517f08c379a0000000000000000000000000000000000000000000000000000000008152600401611ae290613523565b60405180910390fd5b611af4816114a6565b15611b34576040517f08c379a0000000000000000000000000000000000000000000000000000000008152600401611b2b9061358b565b60405180910390fd5b611b415f838360016114e6565b611b4a816114a6565b15611b8a576040517f08c379a0000000000000000000000000000000000000000000000000000000008152600401611b819061358b565b60405180910390fd5b600160035f8473ffffffffffffffffffffffffffffffffffffffff1673ffffffffffffffffffffffffffffffffffffffff1681526020019081526020015f205f82825401925050819055508160025f8381526020019081526020015f205f6101000a81548173ffffffffffffffffffffffffffffffffffffffff021916908373ffffffffffffffffffffffffffffffffffffffff160217905550808273ffffffffffffffffffffffffffffffffffffffff165f73ffffffffffffffffffffffffffffffffffffffff167fddf252ad1be2c89b69c2b068fc378daa952ba7f163c4a11628f55a4df523b3ef60405160405180910390a4611c8c5f838360016114f8565b5050565b5f7f01ffc9a7000000000000000000000000000000000000000000000000000000007bffffffffffffffffffffffffffffffffffffffffffffffffffffffff1916827bffffffffffffffffffffffffffffffffffffffffffffffffffffffff1916149050919050565b50505050565b60088054905060095f8381526020019081526020015f2081905550600881908060018154018082558091505060019003905f5260205f20015f909190919091505550565b5f6001611d4f846108ce565b611d5991906135a9565b90505f60075f8481526020019081526020015f20549050818114611e30575f60065f8673ffffffffffffffffffffffffffffffffffffffff1673ffffffffffffffffffffffffffffffffffffffff1681526020019081526020015f205f8481526020019081526020015f205490508060065f8773ffffffffffffffffffffffffffffffffffffffff1673ffffffffffffffffffffffffffffffffffffffff1681526020019081526020015f205f8481526020019081526020015f20819055508160075f8381526020019081526020015f2081905550505b60075f8481526020019081526020015f205f905560065f8573ffffffffffffffffffffffffffffffffffffffff1673ffffffffffffffffffffffffffffffffffffffff1681526020019081526020015f205f8381526020019081526020015f205f905550505050565b5f6001600880549050611eac91906135a9565b90505f60095f8481526020019081526020015f205490505f60088381548110611ed857611ed7612bb5565b5b905f5260205f20015490508060088381548110611ef857611ef7612bb5565b5b905f5260205f2001819055508160095f8381526020019081526020015f208190555060095f8581526020019081526020015f205f90556008805480611f4057611f3f6135dc565b5b600190038181905f5260205f20015f9055905550505050565b5f611f63836108ce565b90508160065f8573ffffffffffffffffffffffffffffffffffffffff1673ffffffffffffffffffffffffffffffffffffffff1681526020019081526020015f205f8381526020019081526020015f20819055508060075f8481526020019081526020015f2081905550505050565b5f805f90507a184f03e93ff9f4daa797ed6e38ed64bf6a1f010000000000000000831061202d577a184f03e93ff9f4daa797ed6e38ed64bf6a1f0100000000000000008381612023576120226134ac565b5b0492506040810190505b6d04ee2d6d415b85acef8100000000831061206a576d04ee2d6d415b85acef810000000083816120605761205f6134ac565b5b0492506020810190505b662386f26fc10000831061209957662386f26fc10000838161208f5761208e6134ac565b5b0492506010810190505b6305f5e10083106120c2576305f5e10083816120b8576120b76134ac565b5b0492506008810190505b61271083106120e75761271083816120dd576120dc6134ac565b5b0492506004810190505b6064831061210a5760648381612100576120ff6134ac565b5b0492506002810190505b600a8310612119576001810190505b80915050919050565b60405180604001604052805f8152602001606081525090565b5f604051905090565b5f80fd5b5f80fd5b5f7fffffffff0000000000000000000000000000000000000000000000000000000082169050919050565b6121808161214c565b811461218a575f80fd5b50565b5f8135905061219b81612177565b92915050565b5f602082840312156121b6576121b5612144565b5b5f6121c38482850161218d565b91505092915050565b5f8115159050919050565b6121e0816121cc565b82525050565b5f6020820190506121f95f8301846121d7565b92915050565b5f81519050919050565b5f82825260208201905092915050565b5f5b8381101561223657808201518184015260208101905061221b565b5f8484015250505050565b5f601f19601f8301169050919050565b5f61225b826121ff565b6122658185612209565b9350612275818560208601612219565b61227e81612241565b840191505092915050565b5f6020820190508181035f8301526122a18184612251565b905092915050565b5f819050919050565b6122bb816122a9565b81146122c5575f80fd5b50565b5f813590506122d6816122b2565b92915050565b5f602082840312156122f1576122f0612144565b5b5f6122fe848285016122c8565b91505092915050565b5f73ffffffffffffffffffffffffffffffffffffffff82169050919050565b5f61233082612307565b9050919050565b61234081612326565b82525050565b5f6020820190506123595f830184612337565b92915050565b61236881612326565b8114612372575f80fd5b50565b5f813590506123838161235f565b92915050565b5f806040838503121561239f5761239e612144565b5b5f6123ac85828601612375565b92505060206123bd858286016122c8565b9150509250929050565b6123d0816122a9565b82525050565b5f6020820190506123e95f8301846123c7565b92915050565b5f805f6060848603121561240657612405612144565b5b5f61241386828701612375565b935050602061242486828701612375565b9250506040612435868287016122c8565b9150509250925092565b5f6020828403121561245457612453612144565b5b5f61246184828501612375565b91505092915050565b5f81519050919050565b5f82825260208201905092915050565b5f819050602082019050919050565b61249c816122a9565b82525050565b5f82825260208201905092915050565b5f6124bc826121ff565b6124c681856124a2565b93506124d6818560208601612219565b6124df81612241565b840191505092915050565b5f604083015f8301516124ff5f860182612493565b506020830151848203602086015261251782826124b2565b9150508091505092915050565b5f61252f83836124ea565b905092915050565b5f602082019050919050565b5f61254d8261246a565b6125578185612474565b93508360208202850161256985612484565b805f5b858110156125a457848403895281516125858582612524565b945061259083612537565b925060208a0199505060018101905061256c565b50829750879550505050505092915050565b5f6020820190508181035f8301526125ce8184612543565b905092915050565b6125df816121cc565b81146125e9575f80fd5b50565b5f813590506125fa816125d6565b92915050565b5f806040838503121561261657612615612144565b5b5f61262385828601612375565b9250506020612634858286016125ec565b9150509250929050565b5f80fd5b5f80fd5b7f4e487b71000000000000000000000000000000000000000000000000000000005f52604160045260245ffd5b61267c82612241565b810181811067ffffffffffffffff8211171561269b5761269a612646565b5b80604052505050565b5f6126ad61213b565b90506126b98282612673565b919050565b5f67ffffffffffffffff8211156126d8576126d7612646565b5b6126e182612241565b9050602081019050919050565b828183375f83830152505050565b5f61270e612709846126be565b6126a4565b90508281526020810184848401111561272a57612729612642565b5b6127358482856126ee565b509392505050565b5f82601f8301126127515761275061263e565b5b81356127618482602086016126fc565b91505092915050565b5f805f806080858703121561278257612781612144565b5b5f61278f87828801612375565b94505060206127a087828801612375565b93505060406127b1878288016122c8565b925050606085013567ffffffffffffffff8111156127d2576127d1612148565b5b6127de8782880161273d565b91505092959194509250565b5f67ffffffffffffffff82111561280457612803612646565b5b61280d82612241565b9050602081019050919050565b5f61282c612827846127ea565b6126a4565b90508281526020810184848401111561284857612847612642565b5b6128538482856126ee565b509392505050565b5f82601f83011261286f5761286e61263e565b5b813561287f84826020860161281a565b91505092915050565b5f806040838503121561289e5761289d612144565b5b5f6128ab85828601612375565b925050602083013567ffffffffffffffff8111156128cc576128cb612148565b5b6128d88582860161285b565b9150509250929050565b5f80604083850312156128f8576128f7612144565b5b5f61290585828601612375565b925050602061291685828601612375565b9150509250929050565b7f4e487b71000000000000000000000000000000000000000000000000000000005f52602260045260245ffd5b5f600282049050600182168061296457607f821691505b60208210810361297757612976612920565b5b50919050565b7f4552433732313a20617070726f76616c20746f2063757272656e74206f776e655f8201527f7200000000000000000000000000000000000000000000000000000000000000602082015250565b5f6129d7602183612209565b91506129e28261297d565b604082019050919050565b5f6020820190508181035f830152612a04816129cb565b9050919050565b7f4552433732313a20617070726f76652063616c6c6572206973206e6f7420746f5f8201527f6b656e206f776e6572206f7220617070726f76656420666f7220616c6c000000602082015250565b5f612a65603d83612209565b9150612a7082612a0b565b604082019050919050565b5f6020820190508181035f830152612a9281612a59565b9050919050565b7f4552433732313a2063616c6c6572206973206e6f7420746f6b656e206f776e655f8201527f72206f7220617070726f76656400000000000000000000000000000000000000602082015250565b5f612af3602d83612209565b9150612afe82612a99565b604082019050919050565b5f6020820190508181035f830152612b2081612ae7565b9050919050565b7f455243373231456e756d657261626c653a206f776e657220696e646578206f755f8201527f74206f6620626f756e6473000000000000000000000000000000000000000000602082015250565b5f612b81602b83612209565b9150612b8c82612b27565b604082019050919050565b5f6020820190508181035f830152612bae81612b75565b9050919050565b7f4e487b71000000000000000000000000000000000000000000000000000000005f52603260045260245ffd5b7f4e487b71000000000000000000000000000000000000000000000000000000005f52601160045260245ffd5b5f612c19826122a9565b91507fffffffffffffffffffffffffffffffffffffffffffffffffffffffffffffffff8203612c4b57612c4a612be2565b5b600182019050919050565b7f455243373231456e756d657261626c653a20676c6f62616c20696e646578206f5f8201527f7574206f6620626f756e64730000000000000000000000000000000000000000602082015250565b5f612cb0602c83612209565b9150612cbb82612c56565b604082019050919050565b5f6020820190508181035f830152612cdd81612ca4565b9050919050565b7f4552433732313a20696e76616c696420746f6b656e20494400000000000000005f82015250565b5f612d18601883612209565b9150612d2382612ce4565b602082019050919050565b5f6020820190508181035f830152612d4581612d0c565b9050919050565b7f4552433732313a2061646472657373207a65726f206973206e6f7420612076615f8201527f6c6964206f776e65720000000000000000000000000000000000000000000000602082015250565b5f612da6602983612209565b9150612db182612d4c565b604082019050919050565b5f6020820190508181035f830152612dd381612d9a565b9050919050565b7f4552433732313a207472616e736665722066726f6d20696e636f7272656374205f8201527f6f776e6572000000000000000000000000000000000000000000000000000000602082015250565b5f612e34602583612209565b9150612e3f82612dda565b604082019050919050565b5f6020820190508181035f830152612e6181612e28565b9050919050565b7f4552433732313a207472616e7366657220746f20746865207a65726f206164645f8201527f7265737300000000000000000000000000000000000000000000000000000000602082015250565b5f612ec2602483612209565b9150612ecd82612e68565b604082019050919050565b5f6020820190508181035f830152612eef81612eb6565b9050919050565b7f4552433732313a20617070726f766520746f2063616c6c6572000000000000005f82015250565b5f612f2a601983612209565b9150612f3582612ef6565b602082019050919050565b5f6020820190508181035f830152612f5781612f1e565b9050919050565b7f4552433732313a207472616e7366657220746f206e6f6e2045524337323152655f8201527f63656976657220696d706c656d656e7465720000000000000000000000000000602082015250565b5f612fb8603283612209565b9150612fc382612f5e565b604082019050919050565b5f6020820190508181035f830152612fe581612fac565b9050919050565b5f81905092915050565b5f613000826121ff565b61300a8185612fec565b935061301a818560208601612219565b80840191505092915050565b5f6130318285612ff6565b915061303d8284612ff6565b91508190509392505050565b7f45524337323155524953746f726167653a2055524920736574206f66206e6f6e5f8201527f6578697374656e7420746f6b656e000000000000000000000000000000000000602082015250565b5f6130a3602e83612209565b91506130ae82613049565b604082019050919050565b5f6020820190508181035f8301526130d081613097565b9050919050565b5f819050815f5260205f209050919050565b5f6020601f8301049050919050565b5f82821b905092915050565b5f600883026131337fffffffffffffffffffffffffffffffffffffffffffffffffffffffffffffffff826130f8565b61313d86836130f8565b95508019841693508086168417925050509392505050565b5f819050919050565b5f61317861317361316e846122a9565b613155565b6122a9565b9050919050565b5f819050919050565b6131918361315e565b6131a561319d8261317f565b848454613104565b825550505050565b5f90565b6131b96131ad565b6131c4818484613188565b505050565b5b818110156131e7576131dc5f826131b1565b6001810190506131ca565b5050565b601f82111561322c576131fd816130d7565b613206846130e9565b81016020851015613215578190505b613229613221856130e9565b8301826131c9565b50505b505050565b5f82821c905092915050565b5f61324c5f1984600802613231565b1980831691505092915050565b5f613264838361323d565b9150826002028217905092915050565b61327d826121ff565b67ffffffffffffffff81111561329657613295612646565b5b6132a0825461294d565b6132ab8282856131eb565b5f60209050601f8311600181146132dc575f84156132ca578287015190505b6132d48582613259565b86555061333b565b601f1984166132ea866130d7565b5f5b82811015613311578489015182556001820191506020850194506020810190506132ec565b8683101561332e578489015161332a601f89168261323d565b8355505b6001600288020188555050505b505050505050565b5f81519050919050565b5f82825260208201905092915050565b5f61336782613343565b613371818561334d565b9350613381818560208601612219565b61338a81612241565b840191505092915050565b5f6080820190506133a85f830187612337565b6133b56020830186612337565b6133c260408301856123c7565b81810360608301526133d4818461335d565b905095945050505050565b5f815190506133ed81612177565b92915050565b5f6020828403121561340857613407612144565b5b5f613415848285016133df565b91505092915050565b7f455243373231456e756d657261626c653a20636f6e73656375746976652074725f8201527f616e7366657273206e6f7420737570706f727465640000000000000000000000602082015250565b5f613478603583612209565b91506134838261341e565b604082019050919050565b5f6020820190508181035f8301526134a58161346c565b9050919050565b7f4e487b71000000000000000000000000000000000000000000000000000000005f52601260045260245ffd5b7f4552433732313a206d696e7420746f20746865207a65726f20616464726573735f82015250565b5f61350d602083612209565b9150613518826134d9565b602082019050919050565b5f6020820190508181035f83015261353a81613501565b9050919050565b7f4552433732313a20746f6b656e20616c7265616479206d696e746564000000005f82015250565b5f613575601c83612209565b915061358082613541565b602082019050919050565b5f6020820190508181035f8301526135a281613569565b9050919050565b5f6135b3826122a9565b91506135be836122a9565b92508282039050818111156135d6576135d5612be2565b5b92915050565b7f4e487b71000000000000000000000000000000000000000000000000000000005f52603160045260245ffdfea26469706673582212205243b7f5d0e54ffb164d963302cd6bde11e0c160f0eae3156a6458ab6b10b4d164736f6c63430008140033",
  "immutableReferences": {},
  "source": "//Contract based on [https://docs.openzeppelin.com/contracts/4.x/erc721](https://docs.openzeppelin.com/contracts/4.x/erc721)\r\n// SPDX-License-Identifier: MIT\r\npragma solidity ^0.8.13;\r\n\r\nimport \"@openzeppelin/contracts/token/ERC721/ERC721.sol\";\r\nimport \"@openzeppelin/contracts/token/ERC721/extensions/ERC721Enumerable.sol\";\r\nimport \"@openzeppelin/contracts/token/ERC721/extensions/ERC721URIStorage.sol\";\r\nimport \"@openzeppelin/contracts/utils/Counters.sol\";\r\nimport \"@openzeppelin/contracts/access/Ownable.sol\";\r\n\r\ncontract aiverseNFT is ERC721, ERC721Enumerable, ERC721URIStorage {\r\n    using Counters for Counters.Counter;\r\n    Counters.Counter private _tokenIds;\r\n    struct TokenInfo {\r\n        uint256 tokenId;\r\n        string tokenURI;\r\n    }\r\n\r\n    constructor() ERC721(\"Aiverse NFT\", \"NFT\") {}\r\n\r\n    function safeMint(\r\n        address recipient,\r\n        string memory tokenURI\r\n    ) public returns (uint256) {\r\n        _tokenIds.increment();\r\n\r\n        uint256 newItemId = _tokenIds.current();\r\n        _safeMint(recipient, newItemId);\r\n        _setTokenURI(newItemId, tokenURI);\r\n\r\n        return newItemId;\r\n    }\r\n\r\n    function _beforeTokenTransfer(\r\n        address from,\r\n        address to,\r\n        uint256 firstTokenId,\r\n        uint256 batchSize\r\n    ) internal override(ERC721, ERC721Enumerable) {\r\n        super._beforeTokenTransfer(from, to, firstTokenId, batchSize);\r\n    }\r\n\r\n    function _burn(\r\n        uint256 tokenId\r\n    ) internal override(ERC721, ERC721URIStorage) {\r\n        super._burn(tokenId);\r\n    }\r\n\r\n    function tokenURI(\r\n        uint256 tokenId\r\n    ) public view override(ERC721, ERC721URIStorage) returns (string memory) {\r\n        return super.tokenURI(tokenId);\r\n    }\r\n\r\n    function supportsInterface(\r\n        bytes4 interfaceId\r\n    )\r\n        public\r\n        view\r\n        override(ERC721, ERC721Enumerable, ERC721URIStorage)\r\n        returns (bool)\r\n    {\r\n        return super.supportsInterface(interfaceId);\r\n    }\r\n\r\n\r\n    function getTokensByOwner(address owner) public view returns (TokenInfo[] memory) {\r\n        uint256 balance = balanceOf(owner);\r\n        TokenInfo[] memory tokens = new TokenInfo[](balance);\r\n\r\n        for (uint256 i = 0; i < balance; i++) {\r\n            uint256 tokenId = tokenOfOwnerByIndex(owner, i);\r\n            string memory tokenURI = tokenURI(tokenId);\r\n            tokens[i] = TokenInfo(tokenId, tokenURI);\r\n        }\r\n\r\n        return tokens;\r\n    }\r\n\r\n}\r\n",
  "sourcePath": "E:\\projects\\octatec\\aiverse\\app\\eth\\contracts\\aiverse-nft.sol",
  "compiler": {
    "name": "solc",
    "version": "0.8.20+commit.a1b79de6.Emscripten.clang"
  },
  "schemaVersion": "3.4.14",
  "updatedAt": "2023-07-02T21:42:51.374Z",
  "networkType": "ethereum",
  "devdoc": {
    "events": {
      "Approval(address,address,uint256)": {
        "details": "Emitted when `owner` enables `approved` to manage the `tokenId` token."
      },
      "ApprovalForAll(address,address,bool)": {
        "details": "Emitted when `owner` enables or disables (`approved`) `operator` to manage all of its assets."
      },
      "BatchMetadataUpdate(uint256,uint256)": {
        "details": "This event emits when the metadata of a range of tokens is changed. So that the third-party platforms such as NFT market could timely update the images and related attributes of the NFTs."
      },
      "MetadataUpdate(uint256)": {
        "details": "This event emits when the metadata of a token is changed. So that the third-party platforms such as NFT market could timely update the images and related attributes of the NFT."
      },
      "Transfer(address,address,uint256)": {
        "details": "Emitted when `tokenId` token is transferred from `from` to `to`."
      }
    },
    "kind": "dev",
    "methods": {
      "approve(address,uint256)": {
        "details": "See {IERC721-approve}."
      },
      "balanceOf(address)": {
        "details": "See {IERC721-balanceOf}."
      },
      "getApproved(uint256)": {
        "details": "See {IERC721-getApproved}."
      },
      "isApprovedForAll(address,address)": {
        "details": "See {IERC721-isApprovedForAll}."
      },
      "name()": {
        "details": "See {IERC721Metadata-name}."
      },
      "ownerOf(uint256)": {
        "details": "See {IERC721-ownerOf}."
      },
      "safeTransferFrom(address,address,uint256)": {
        "details": "See {IERC721-safeTransferFrom}."
      },
      "safeTransferFrom(address,address,uint256,bytes)": {
        "details": "See {IERC721-safeTransferFrom}."
      },
      "setApprovalForAll(address,bool)": {
        "details": "See {IERC721-setApprovalForAll}."
      },
      "symbol()": {
        "details": "See {IERC721Metadata-symbol}."
      },
      "tokenByIndex(uint256)": {
        "details": "See {IERC721Enumerable-tokenByIndex}."
      },
      "tokenOfOwnerByIndex(address,uint256)": {
        "details": "See {IERC721Enumerable-tokenOfOwnerByIndex}."
      },
      "totalSupply()": {
        "details": "See {IERC721Enumerable-totalSupply}."
      },
      "transferFrom(address,address,uint256)": {
        "details": "See {IERC721-transferFrom}."
      }
    },
    "version": 1
  },
  "userdoc": {
    "kind": "user",
    "methods": {},
    "version": 1
  }
}